:100000005DC0000083C0000081C000007FC0000010
:100010007DC000007BC0000079C0000077C00000F8
:1000200075C0000073C0000071C000006FC0000008
:100030006DC000000C94E02369C0000067C00000A0
:100040000C94592B63C000000C94102E0C94422E7B
:100050005DC000005BC0000059C0000057C0000038
:100060000C943C2A53C0000000000008000201006C
:100070000003040700000000000000000102040863
:100080001020408001020408102001020408102002
:10009000040404040404040402020202020203032E
:1000A0000303030300000000250028002B000000CC
:1000B0000000240027002A008528672E11241FBE77
:1000C000CFEFD8E0DEBFCDBF12E0A0E0B1E0EAE2C2
:1000D000FEE502C005900D92A830B107D9F727E0E0
:1000E000A8E0B2E001C01D92A130B207E1F710E034
:1000F000CEE5D0E004C02197FE010E94E42ECC356D
:10010000D107C9F70E94CE240C94132F79CFCF9337
:10011000DF93882349F0EB0181500E94392C9983A9
:100120008883DF91CF910895FB0111821082F9CF6E
:100130000F931F938B019C0183E0369527951795AC
:1001400007958A95D1F7085F1D4F462F477021E02C
:1001500030E0F90102C0EE0FFF1F4A95E2F7AF0150
:10016000F80120812423CB010196211102C090E0E7
:1001700080E01F910F9108950F931F938B019C01B5
:1001800083E036952795179507958A95D1F767707F
:1001900081E090E001C0880F6A95EAF7F801E85F16
:1001A000FD4F2081452B31F48095822380831F9160
:1001B0000F910895822BFACFCF92DF92EF92FF92A8
:1001C000CF93DF936B017C0160E08EE0C816D10411
:1001D000E104F10490F48EE08C0D0E947D2CE60188
:1001E0002196AE01C701B601C7DFCE01DF91CF91E5
:1001F000FF90EF90DF90CF9008958C2DEECF882365
:1002000041F08150682F70E090E080E050E040E0E5
:10021000B3CF0895CF92DF92EF92FF926B017C01F2
:10022000C114D104E104F10469F480910001811149
:1002300009C080910201909103010E94572881E03A
:1002400080930001C601880F991F880F991F805065
:100250009F4FFF90EF90DF90CF900895009781F02F
:10026000FC012181211104C040EA56E861E070E000
:10027000FC01828193810E94662890E080E00895CD
:1002800088E090E008958F929F92AF92BF92CF92B4
:10029000DF92EF920F931F93CF93DF930097F1F0CC
:1002A0006A01EC018A819B810E9469288A819B8175
:1002B000DC01ED91FC910280F381E02DA801B601F3
:1002C00009958A819B8160E0E11001C061E00E9494
:1002D0007328882389F08250823088F088E090E08B
:1002E000DF91CF911F910F91EF90DF90CF90BF9052
:1002F000AF909F908F90089590E080E0F1CF84E0E0
:1003000090E0EECF089590E080E008950F931F9362
:10031000009709F488C06115710509F484C0009143
:100320003A0110913B0120913C0130913D010E3F7B
:100330001F4F2F4F3F4F09F067C04FEF5FEFBA01DC
:1003400040933A0150933B0160933C0170933D010F
:1003500040913A0150913B0160913C0170913D0107
:10036000DC011296ED91FC9180819181A281B38193
:100370008093340390933503A0933603B0933703EF
:1003800084819581A681B781809330039093310356
:10039000A0933203B093330380859185A285B38502
:1003A00080932C0390932D03A0932E03B0932F03DF
:1003B00084859585A685B785809328039093290326
:1003C000A0932A03B0932B031092240310922503C9
:1003D00010922603109227030E94890A8EEA9AE05F
:1003E000909312028093110290931402809313024F
:1003F00087D7009731F421E030E030933903209320
:1004000038031F910F91089500913A0110913B011B
:1004100020913C0130913D01DB010D931D932D9303
:100420003C93139795CF8FEF9FEFEBCF8F929F92D7
:10043000AF92BF92CF92DF92EF92FF921F93CF9332
:10044000DF934B015C0110913B0382E090E09093BD
:1004500039038093380381149104A104B10441F459
:1004600080913B03811104C080913A03C1E0811166
:10047000C0E0C12CD12C760180913B03811106C0D4
:1004800080913A03811102C0CC23D9F083E090E03F
:100490009093390380933803CC2379F1CCE9DFEFD3
:1004A000111102C00E94130ECE01DF91CF911F9156
:1004B000FF90EF90DF90CF90BF90AF909F908F9084
:1004C00008956AE070E080E090E00E94C82B80E12F
:1004D000C80E87E2D81EE11CF11C8FEF8816980623
:1004E000A806B80631F0C1E08C149D04AE04BF0428
:1004F00008F0C0E080E038D7BFCFD0E0C0E0D0CF78
:10050000CF92DF92EF92FF920F931F93CF93DF93DF
:100510008F3F910511F008F045C0209138033091CC
:1005200039032330310539F02091380330913903F4
:100530002130310531F424E030E030933903209349
:1005400038036A017B01EC0182309105B0F011E0C3
:10055000AE01C701B601D3D6AB01BC0190E080E08B
:10056000112311F1CE01DF91CF911F910F91FF90D7
:10057000EF90DF90CF900C9428108C01000F111F8A
:100580000F5E1D4FD8018D919C91892B01F30E9424
:100590002F100297E1F6D801ED91FC91CE0109955B
:1005A000182FD6CF8FEF9FEFDF91CF911F910F9133
:1005B000FF90EF90DF90CF90089580E0D5C6CF9365
:1005C000DF9386E090E0909339038093380325D73A
:1005D000EC01E1E1F2E084E0DF011D928A95E9F7A8
:1005E0000E94AB0D1092390310923803CE01DF91B7
:1005F000CF91089580913A0308958091230308953F
:1006000060933A0170933B0180933C0190933D01CC
:1006100090E080E00895CF93DF93C091B302D09132
:10062000B4022091AF063091B0064091B1065091CE
:10063000B206609130017091310180913201909148
:1006400033010E94372720E030E0A9010E944C25A9
:100650002091DB063091DC064091DD065091DE06EC
:100660000E944C25688379838A839B83DF91CF9195
:1006700008952F923F924F925F926F927F928F9246
:100680009F92AF92BF92CF92DF92EF92FF920F9321
:100690001F93CF93DF93CDB7DEB764970FB6F8946F
:1006A000DEBF0FBECDBF8091FA029091FB02813078
:1006B000910509F04AC06091EA027091EB028091C5
:1006C000EC029091ED026F5F7F4F8F4F9F4F0E9422
:1006D000E0252091EE023091EF024091F00250911E
:1006E000F1020E943727609337027093380280939B
:1006F000390290933A026091F2027091F302809174
:10070000F4029091F5020E94E0252AE037ED43E2E1
:100710005CE30E9437276B017C01AC019B01609177
:1007200008017091090180910A0190910B010E94CA
:10073000332718160CF400C280901001909011011C
:10074000A0901201B0901301FFC1892B99F4E091A0
:100750006702F09168020190F081E02D8081918123
:10076000A281B381E091FD02F091FE02808391832A
:10077000A283B3832091AF063091B0064091B106B9
:100780005091B2066091340170913501809136012B
:10079000909137010E94372720E030E0A9010E94A4
:1007A0004C256093DF067093E0068093E1069093FA
:1007B000E2068091FA029091FB02019709F0A3C131
:1007C0004091EA025091EB026091EC027091ED02CF
:1007D00090E080E095DE8091FA029091FB02019713
:1007E00009F091C14091F2025091F3026091F4023C
:1007F0007091F50281E090E083DE8091FA029091A1
:10080000FB02988B8F87019709F07DC1E091670209
:10081000F09168020190F081E02D4080518062806B
:1008200073808091370290913802A0913902B09183
:100830003A02898B9A8BAB8BBC8BE0913B02F09197
:100840003C02C080D180E280F380E0916B02F091A5
:100850006C0200811181E0912F02F0913002A081A1
:10086000B181BA87A98722803380848195819C8752
:100870008B87A681B781BE87AD87E0912D02F0916D
:100880002E021182108284E0F801A985BA850190B8
:100890000D928A95E1F7E0916502F091660231824E
:1008A0002082B9DE20E030E040E05FE3C701B6011E
:1008B0000E9437274B015C01F10120813181428187
:1008C00053810E943727A985BA852D913D914D917D
:1008D0005C910E944C25F80160837183828393832D
:1008E000E0916702F0916802808191819E838D83FF
:1008F000A5019401C301B2010E944C25AD81BE81C6
:100900006D937D938D939C931397E0916502F09185
:1009100066028B859C8591838083ABDE7CDE20E044
:1009200030E040E45FE3C701B6010E9437274B0186
:100930005C0120E030E0A901C701B6010E94372721
:10094000D1012D913D914D915C910E9437276D838E
:100950007E838F839887EB85FC852081318142815E
:100960005381C501B4010E9437279B01AC016D8101
:100970007E818F8198850E944C25A985BA852D910D
:100980003D914D915C910E944C25F80160837183EB
:1009900082839383E0916702F09168028081918164
:1009A0009E838D83A5019401C301B2010E944C2551
:1009B000AD81BE816D937D938D939C931397E09150
:1009C0006502F09166028D859E859183808351DE5C
:1009D00022DE29E33EE843E65EE3C701B6010E945A
:1009E0003727D1012D913D914D915C910E94372780
:1009F0004B015C012BEA3AEA4AEA5EE3C701B60121
:100A00000E943727EB85FC8520813181428153810B
:100A10000E9437279B01AC01C501B4010E944C25FF
:100A20004B015C0129E33EE843EE5EE3C701B601FA
:100A30000E943727AD85BE852D913D914D915C91EA
:100A40000E9437279B01AC01C501B4010E944C25CF
:100A5000E985FA8520813181428153810E944C25AC
:100A6000D8016D937D938D939C931397E0916702CA
:100A7000F09168020190F081E02D89899A89AB8913
:100A8000BC8980839183A283B383E0912D02F0918E
:100A90002E02AF85B889B183A0838091EA0290913C
:100AA000EB02A091EC02B091ED020196A11DB11DE7
:100AB0008093EA029093EB02A093EC02B093ED02D4
:100AC0008091370290913802A0913902B0913A0298
:100AD000E091FD02F091FE0280839183A283B383B3
:100AE0008091F2029091F302A091F402B091F5028C
:100AF0000196A11DB11D8093F2029093F302A09381
:100B0000F402B093F50264960FB6F894DEBF0FBE00
:100B1000CDBFDF91CF911F910F91FF90EF90DF90AC
:100B2000CF90BF90AF909F908F907F906F905F908D
:100B30004F903F902F90089580900C0190900D0160
:100B4000A0900E01B0900F01A701960160911401D1
:100B50007091150180911601909117010E94332721
:100B600018160CF0B0C04090180150901901609018
:100B70001A0170901B01A7019601609120017091EC
:100B8000210180912201909123010E9433271816A0
:100B90000CF0A2C0C0902401D0902501E090260165
:100BA000F0902701A3019201C501B4010E944C25D8
:100BB000A70196010E944B256093DB067093DC062B
:100BC0008093DD069093DE0620912C0130912D015B
:100BD00040912E0150912F010E9437270E941D261F
:100BE0006B017C0189D2811180C0C701B6013FD25F
:100BF00081117BC020E030E040E857E4C701B60136
:100C00000E9437266B017C0120E030E0A9010E94A0
:100C1000B02587FF6DC0C701B60190580E94B4256A
:100C200071956195710979836A83C12CE12C02E089
:100C300010E020E030E0AE014F5F5F4F60E670E013
:100C40008091C5069091C6061EDBC0900401D0902D
:100C50000501E0900601F0900701A701960160915F
:100C6000BB067091BC068091BD069091BE060E94A5
:100C7000B025882341F0C092BB06D092BC06E0921A
:100C8000BD06F092BE066EE070E080E090E050DAC3
:100C90009093BA068093B90643E050E0BE016D5FC1
:100CA0007F4F35DA2091380130913901AB81BC8119
:100CB0000E94EA2E6093E3067093E4068093E506B3
:100CC0009093E60657CD40901C0150901D01609016
:100CD0001E0170901F014FCFC0902801D0902901B4
:100CE000E0902A01F0902B015DCFC12CD12C760130
:100CF000C701B6010E94B42596CFCF92DF92EF9242
:100D0000FF920F931F93CF93DF9384E090E078D10D
:100D1000E7E2F2E08AEF92E097838683CDEFD2E0BC
:100D2000D0936802C09367020EEE12E0158B048B1D
:100D300023EB32E037AF26AF2DEA32E030936C027E
:100D400020936B0242EE52E050936A024093690294
:100D500044EE52E050936E0240936D024FEA52E02F
:100D60005093700240936F0241EB52E05093720235
:100D700040937102F0939202E0939102F583E48331
:100D800041E050E0DC014D935C938AEC92E04AEB49
:100D900052E0DC014D935C934EEB52E05093CD0258
:100DA0004093CC0242EC52E05093CF024093CE02EB
:100DB00046EC52E05093D1024093D0024FEA56E005
:100DC000D9014D935C939187808788E591E0938763
:100DD00082872FEF32E03983288340E050E060E2E1
:100DE00072E44093F6025093F7026093F802709316
:100DF000F9024AE057ED63E27CE3D8014D935D933D
:100E00006D937C931397C2EDD2E088E89AE6ABED40
:100E1000BCE788839983AA83BB838AEE9AE9A8E713
:100E2000BBE28093D6029093D702A093D802B093EE
:100E3000D9028BE396E4A7ECB8E68093DA029093AC
:100E4000DB02A093DC02B093DD0289E79AEBA4E316
:100E5000BBE58093DE029093DF02A093E002B093A3
:100E6000E102ABE1B2E0B383A283E5E1F2E01196E7
:100E7000FC93EE938DE591E091838083938382834D
:100E80009583848388EE92E015969C938E931497B5
:100E90001396DC93CE93129717963C932E93169746
:100EA0001092AF061092B0061092B1061092B206E0
:100EB000C3EBD6E080E090E5A3ECB8E4888F998F8F
:100EC000AA8FBB8F1B8A1A8A1C86198AC12CD12C27
:100ED0007601C394CD86DE86EF86F88A50E040E046
:100EE00060E070E0CB0196D99B8B8A8B40EA56E894
:100EF00061E070E04C8B5D8B6E8B7F8BAFD911E026
:100F0000198B18828091040190910501A09106012E
:100F1000B091070188879987AA87BB871D82C982FC
:100F2000DA82EB82FC826EE070E080E090E044D9EF
:100F30009F838E831D83DF91CF911F910F91FF902F
:100F4000EF90DF90CF9008958091BF06811118C077
:100F500081E08093BF068091C0069091C106A09168
:100F6000C206B091C3060197A105B10549F480916D
:100F7000C406882329F08091C5069091C606C2D97F
:100F80008091B30681111DC081E08093B3068091EA
:100F9000B4069091B506A091B606B091B706019738
:100FA000A105B10571F48091B806882351F06EE077
:100FB00070E080E090E0BCD89093BA068093B906C8
:100FC0001EC9089560E070E080E89FE7089560E042
:100FD00070E080E89FE7089560E070E080E89FEFB0
:100FE000089560E070E080E89FEF089560E070E0B1
:100FF00080EC9FEF089560E070E080EC9FEF089533
:10100000F5DF6093F3067093F4068093F5069093F2
:10101000F606F1DF6093E7067093E8068093E90631
:101020009093EA06CFDF6093EF067093F00680930B
:10103000F1069093F206CBDF6093EB067093EC061B
:101040008093ED069093EE06C7DF6093F7067093EA
:10105000F8068093F9069093FA06C3DF6093FB06C7
:101060007093FC068093FD069093FE060895CF9240
:10107000DF92EF92FF92CF936B017C01AC019B0159
:101080006091EF067091F0068091F1069091F20662
:101090000E94B025C1E0882371F0A70196016091FC
:1010A000F7067091F8068091F9069091FA060E9471
:1010B000B0258111C0E08C2FCF91FF90EF90DF9091
:1010C000CF9008950F931F938B019C010027112748
:1010D00020783F770115110520483F4749F4AB01BF
:1010E000BC016F77772781E0452B462B472B09F40E
:1010F00080E01F910F910895E5CF4F925F926F921C
:101100007F928F929F92AF92BF92CF92DF92EF9297
:10111000FF920F931F93F894409013035090140381
:101120006090150370901603C0900703D0900803D9
:10113000E0900903F0900A034130510509F0A4C082
:101140009B01AC01241935094609570929013A01C7
:1011500000910F031091100320911103309112039D
:1011600048015901840C951CA61CB71C80169106D9
:10117000A206B306A0F400910B0310910C0320917A
:101180000D0330910E030F5F1F4F2F4F3F4F009302
:101190000B0310930C0320930D0330930E038092E6
:1011A0000F0390921003A0921103B09212030091CA
:1011B0000B0310910C0320910D0330910E038092CC
:1011C000170390921803A0921903B0921A03009388
:1011D0001B0310931C0320931D0330931E03609385
:1011E0001303709314038093150390931603A0E1E7
:1011F000B7E2A30192010E94F92E6C0D7D1D8E1D98
:101200009F1D6093070370930803809309039093D5
:101210000A0300913A0110913B0120913C01309169
:101220003D010F3F1F4F2F4F3F4FF1F000913A010B
:1012300010913B0120913C0130913D010E3F1F4F29
:101240002F4F3F4F89F0C0903A01D0903B01E09082
:101250003C01F0903D0121E08C149D04AE04BF04DC
:1012600008F420E02093230378941F910F91FF90BE
:10127000EF90DF90CF90BF90AF909F908F907F9036
:101280006F905F904F9008954B015C018418950812
:10129000A608B708A3019201261B370B480B590B70
:1012A0006415750586059705D0F082169306A40689
:1012B000B50640F420E030E0A90181149104A104B6
:1012C000B10491F4A0E1B7E20E94F92EA7019601C2
:1012D000261B370B480B590BCA01B901C5CF821623
:1012E0009306A406B50670F7A0E1B7E2A501940144
:1012F0000E94F92E6C0D7D1D8E1D9F1DB5CFFDCE5C
:10130000CF93DF9300D000D0CDB7DEB71C821B8215
:101310001A82198210921F03109220031092210347
:1013200010922203BE016F5F7F4FCE0103960E9491
:10133000C72369817A818B819C810E94101D00974F
:1013400061F4BE016F5F7F4FCE0103960E94D323ED
:1013500069817A818B819C8125D50F900F900F90A8
:101360000F90DF91CF910895FF920F931F93CF932A
:10137000DF93082F60E070E0CB010E94C82BFF24B0
:10138000F3940E94FB1BEC01892B89F010E0CE3F07
:101390008FEFD80769F0002361F160E070E0CB01C6
:1013A0000E94C82B81E090E0892B59F322C011E004
:1013B0001CD5EC01892B21F0CE3F8FEFD80759F7D0
:1013C00011111EC011E0229609F410E00E94AC1B1E
:1013D000EC01892B21F0CE3F8FEFD807E1F61111F8
:1013E00011C011E0CE3F8FEFD80709F410E00111D2
:1013F0000BC0CE01DF91CF911F910F91FF90089507
:1014000011E0E4CF11E0F3CF60E070E0CB010E9487
:10141000C82B1F25812F90E0C7CFCF93DF931FD616
:10142000D0E0C0E0892B71F06AE070E080E090E0ED
:101430000E94C82B81E098DF12D62196C03D27E09C
:10144000D20781F711D60E94641D10923B031092BF
:101450003A0310923403109235031092360310921F
:10146000370310923003109231031092320310921E
:10147000330310922C0310922D0310922E0310921E
:101480002F03109228031092290310922A0310921E
:101490002B0310922403109225031092260310921E
:1014A00027034EEF5FEF6FEF7FEF40933A015093CA
:1014B0003B0160933C0170933D0110922303E7E1EF
:1014C000F3E028E0DF011D922A95E9F7109213035B
:1014D00010921403109215031092160310920F032A
:1014E00010921003109211031092120310920B032A
:1014F00010920C0310920D0310920E03109207032A
:10150000109208031092090310920A03DF91CF9101
:1015100008951092470310924803109249031092C5
:101520004A031092460380914F0390915003909389
:101530004503809344031092430310924203109298
:101540003E0310923F031092400310924103109209
:101550004C0310924B0390E080E00895CF92DF920D
:10156000EF92FF920F931F93CF938C01019709F095
:1015700055C020914F0330915003809144039091C6
:10158000450340914F0350915003509345034093BE
:1015900044032817390781F0109243031092420345
:1015A00010923E0310923F031092400310924103A9
:1015B00010924C0310924B0380914F039091500373
:1015C000019761F580914B0390914C03892B21F495
:1015D00080913E01811112C080914B0390914C0388
:1015E0000197E1F480913E0390913F03A091400365
:1015F000B09141030197A105B10581F410923E031A
:1016000010923F03109240031092410310923E014A
:1016100082E090E090934C0380934B0380914F03C2
:1016200090915003019709F01CC18091650390913E
:1016300066038017910709F014C1809161039091AE
:101640006203A0916303B0916403009709F409C198
:101650002091600321110DC04091610350916203FC
:101660006091630370916403452B462B472B09F46B
:10167000F8C020914B0330914C032230310509F022
:10168000F0C0209142032111ECC0FC01C080D18048
:10169000E280F38080914603882309F4D3C08091CF
:1016A000520390915303892B09F4FEC020915203F9
:1016B0003091530381E02230310509F080E0209120
:1016C000520330915303C1E02130310549F020919C
:1016D000520330915303C1E02230310509F0C0E0DC
:1016E000882309F456C020915C0330915D0340913A
:1016F0005E0350915F03C701B6010E94332787FD47
:1017000014C020915C0330915D0340915E035091C1
:101710005F03609147037091480380914903909162
:101720004A030E94B02587FD22C020915C033091BE
:101730005D0340915E0350915F03C701B6010E94B3
:101740003327181634F520915C0330915D034091E6
:101750005E0350915F03609147037091480380914D
:10176000490390914A030E94B025811112C08091D3
:10177000540390915503A0915603B0915703892BC0
:101780008A2B8B2B19F481E08093430381E08093B3
:101790004203CC2309F456C020915C0330915D03D1
:1017A00040915E0350915F03C701B6010E94B025CE
:1017B00087FF14C020915C0330915D0340915E036C
:1017C00050915F03609147037091480380914903F2
:1017D00090914A030E94332787FF22C020915C0327
:1017E00030915D0340915E0350915F03C701B601E4
:1017F0000E94B025811126C020915C0330915D03C9
:1018000040915E0350915F036091470370914803DC
:101810008091490390914A030E943327181694F44B
:101820008091540390915503A0915603B0915703B2
:10183000892B8A2B8B2B19F481E08093430381E061
:101840008093420381E090914203911180E0809364
:101850004603C0924703D0924803E0924903F092B6
:101860004A030130110509F067C180914B03909143
:101870004C03892BD9F410925103109242038091AA
:101880003E01882379F082E090E090934C038093AE
:101890004B0310923E0120914F033091500381E0A1
:1018A000232BE9F080E01BC081E009CF10923E01BC
:1018B00080915103882349F01092430310924C0306
:1018C00010924B0310925103EDCF80914F039091F2
:1018D0005003892BE1F08091420310924203209142
:1018E0004B0330914C032230310509F45EC088F47B
:1018F0002115310509F448C02130310509F4F3C040
:1019000010924303109242031092510338C081E0B9
:10191000E6CF2330310509F4B1C02430310581F719
:1019200040913E0350913F03609140037091410309
:10193000411551056105710561F041505109610979
:10194000710940933E0350933F03609340037093AB
:10195000410340913E0350913F03609140037091D9
:101960004103452B462B472BD9F420914D03309151
:101970004E032130310509F046C010924303109206
:101980004C0310924B030CC080913E01882341F020
:1019900082E090E090934C0380934B0310923E01C1
:1019A00010923C0380914303CEC08823C9F38091F9
:1019B000540390915503A0915603B0915703181604
:1019C00019061A061B060CF07DC080914F039091FA
:1019D0005003019709F076C080915403909155030C
:1019E000A0915603B091570380933E0390933F0319
:1019F000A0934003B093410383E090E090934C03A5
:101A000080934B03CDCF409158035091590360917F
:101A10005A0370915B03452B462B472BA9F010927C
:101A200043038091580390915903A0915A03B091B8
:101A30005B0380933E0390933F03A0934003B093D6
:101A4000410381E090E0DACF882399F080913F0153
:101A500090914001A0914101B091420180933E03D9
:101A600090933F03A0934003B093410384E090E040
:101A7000C5CF1092430382E090E0C0CF80913E0337
:101A800090913F03A0914003B09141030097A105BD
:101A9000B10559F00197A109B10980933E039093D4
:101AA0003F03A0934003B093410380913E03909184
:101AB0003F03A0914003B0914103892B8A2B8B2BCC
:101AC00009F06ECF80913F0190914001A0914101BA
:101AD000B0914201892B8A2B8B2B09F44ECF81E0E8
:101AE00080934303B3CF40913E0350913F036091F5
:101AF000400370914103411551056105710561F085
:101B0000415051096109710940933E0350933F03CD
:101B1000609340037093410340913E0350913F0313
:101B20006091400370914103452B462B472B09F0F0
:101B300037CF8111C7CF9FCF80913C03882309F411
:101B400031CF80913D03CF911F910F91FF90EF9086
:101B5000DF90CF900895109247031092480310929F
:101B6000490310924A031092460310924C031092BC
:101B70004B03109245031092440310926603109297
:101B80006503109243031092420310923E03109299
:101B90003F03109240031092410310923D031092B4
:101BA0003C0310926103109262031092630310923F
:101BB00064031092600310925C0310925D03109214
:101BC0005E0310925F0388EE93E0A0E0B0E08093A4
:101BD0003F0190934001A0934101B09342011092C4
:101BE00058031092590310925A0310925B031092FB
:101BF00054031092550310925603109257031092FB
:101C000053031092520381E080933E0110925103DE
:101C10001092500310924F0310924E0310924D03F6
:101C200090E080E0089580914F0390915003892BBC
:101C300019F580913E01882351F080915103811163
:101C400006C081E080933D0380933C03089520917A
:101C5000510330913E0181E090E0332311F090E098
:101C600080E030E082239323892B21F010923D0302
:101C700081E0EACF10923C03089582E090E0FA01FF
:101C8000918380838FEF9FEF0895CF93DF93EA01D5
:101C9000009711F00E94791E1982188290E080E06E
:101CA000DF91CF910895DB01009719F48FEF8C93AA
:101CB00008952EEF2C930F968F30910508F033C0C6
:101CC000FC01EB59F14F0C94E42E910E8F0E8D0E0A
:101CD0008B0E890E850E870E830E810E7F0E7C0E75
:101CE000780E740E7A0E930E80E311968C930895FD
:101CF00089E2FBCF82E2F9CF11961C92089583E22C
:101D0000F4CF81E2F2CF81E1F0CF87E2EECF8AE239
:101D1000ECCF80E1EACF84E2E8CF88E2E6CF86E24A
:101D2000E4CF81E3E2CF80E2E0CF80917303909132
:101D300074030895909374038093730308958091BE
:101D40007203089590917203892B80937203089512
:101D5000982F909580917203892380937203089540
:101D600080917103089580916F039091700308959D
:101D70006115710559F0FB0130E020E070E060E092
:101D80002417350719F06115710511F0CB0108957D
:101D9000A081B181A817B90709F4BF012F5F3F4F98
:101DA0003696EECF8091750381111CC043D249D283
:101DB00090936803809367030E94EF170E940118B5
:101DC00090936C0380936B030E94161B0E941D1B53
:101DD00090936A038093690381E08093750390E098
:101DE00080E0089584EF9FEF08958F929F92AF92C5
:101DF000BF92CF92DF92EF92FF920F931F93CF93F8
:101E0000DF93CDB7DEB72A970FB6F894DEBF0FBECB
:101E1000CDBF1A86198618861F821E821D821C82DB
:101E20001B821A8219828091750307EF1FEF8823A6
:101E300009F48BC08E010D5F1F4F9E012B5F3F4F3A
:101E4000AE01495F5F4FBE01675F7F4F90E080E06A
:101E50000E94961C8C01009721F00596029708F0CD
:101E6000C7C089859A85009709F4EFC0ED80FE8090
:101E70002B813C812E0D3F1D4F8158854217530702
:101E800008F4E3C0E80EF91ED7014C9120917303CA
:101E900030917403232B09F494C0413F08F069C0CA
:101EA0008CE1840F8D3008F483C08DE2840F803183
:101EB00008F481C088E3840F8B3008F47FC093E579
:101EC000C92E9EE0D92EEDE3FEE06D817E81AE014C
:101ED0004F5F5F4F89859A8509955C01C114D104D4
:101EE000A1F189809A808114910479F18B819C8180
:101EF0008815990508F484C010E000E04B815C81EE
:101F000070E060E0C7010E940C2F01151105E9F493
:101F100049815A8169857A858D819E81680F791FF3
:101F2000C501F6010995E980FA800D811E812F8196
:101F3000388549855A856FEF7FEF81E090E00E94F8
:101F4000321C8C01892B09F053C0C8012A960FB6A8
:101F5000F894DEBF0FBECDBFDF91CF911F910F91DF
:101F6000FF90EF90DF90CF90BF90AF909F908F90B9
:101F7000089530E020E0220F331FF901E959FC4FAA
:101F80000190F081E02D309709F499CF842F90E0F3
:101F90000995009709F493CFDC011296ED91FC911D
:101FA00013971496CD90DC90309709F08ECF1EC019
:101FB00021E030E0E0CF22E030E0DDCF23E030E090
:101FC000DACFD12CC12CE5E4FEE04F3F09F07DCF04
:101FD000E0916703F0916803309719F404EF1FEF65
:101FE0000CC08FEF90E009950097B1F604EF1FEF5A
:101FF00089859A85009709F4A8CF0E94791EA5CFFC
:102000000E945F1D8C0189859A850E94791E70E06F
:1020100060E0C4010E94F81C98878F830E942F1CE7
:102020009E838D836F8178856115710559F0C80194
:102030000E94FD1F9A87898706EF1FEF892B09F001
:102040005BCF5CCF08EF1FEF59CF08EF1FEFD0CF6A
:10205000209175032111DAC787EF9FEF08958091D2
:1020600073039091740308950E94221B0E947C1AAE
:10207000EDD0E7E6F3E088E0DF011D928A95E9F70D
:102080001092750390E080E0089586E090E0FA01F8
:102090009183808390E080E0089547E050E060E61F
:1020A00071E066CEDF92EF92FF920F931F93CF9372
:1020B000DF938A01EC01C60FD71FE0907903F090FF
:1020C0007A03D9800E94471DD816190678F082E05D
:1020D00090E0F801918380838EEF9FEFDF91CF91A5
:1020E0001F910F91FF90EF90DF900895EF2841F43A
:1020F00082E090E0F8019183808384EF9FEFEECF40
:1021000089818093780390E00196F8019183808320
:1021100090E080E0E3CFCF93DF93EA010E948E1935
:10212000882321F00E94541D0E948F1982E090E0C4
:10213000998388838BEF9FEFDF91CF910895CF93A1
:10214000DF93EB0186E0FB0111928A95E9F78FEFAF
:102150008883F5DD898304DE8A8305DE9D838C8395
:10216000DF91CF910895CF93DF93EA010E949119F7
:10217000811109C082E090E09983888385EF9FEF09
:10218000DF91CF91089590E080E0D4DD81E090E090
:102190009983888390E080E0F3CF0F931F93CF93D0
:1021A000DF93EA018C01060F171F0E94911981111C
:1021B0000BC082E090E09983888385EF9FEFDF91E9
:1021C000CF911F910F910895F8018181823038F0ED
:1021D00082E090E0998388838EEF9FEFF0CF81E0DB
:1021E00090E0A8DD88E090E09983888390E080E02B
:1021F000E6CFCF93DF930097D1F4EB01FB0132964A
:1022000086E0DF011D928A95E9F78FEF888385E0EC
:1022100089831A820E94471D8B830E94461D9D83DD
:102220008C8381E08E838F83DF91CF910895DF913E
:10223000CF9139CD8DE490E190937703809376032D
:102240000895809176039091770308951092770313
:102250001092760308958091790390917A030895FE
:10226000411105C0611571058105910561F060930B
:10227000790370937A0380937B0390937C0340935C
:102280007D0381E0089580E00895FF920F931F93EE
:10229000CF93DF938A01EC01C60FD71FF9800E940C
:1022A000471DF816190668F082E090E0F801918366
:1022B00080838EEF9FEFDF91CF911F910F91FF9061
:1022C00008956C817D818E819F814B81C9DF811151
:1022D00008C082E090E0F8019183808384EF9FEF53
:1022E000EACF89818093780390E00196F801918389
:1022F000808390E080E0DFCFCF93DF93EA01FC01A1
:10230000E60FF71F64817581868197814381A8DF7D
:10231000811109C082E090E09983888384EF9FEF68
:10232000DF91CF91089581E090E09983888390E0D8
:1023300080E0F6CFE9E7F3E040815181628173816B
:10234000480F511D611D711D40835183628373834A
:102350000895CF93C09178034C2F50E0609179039A
:1023600070917A0301960E94032F8C2FE3DF109265
:102370007803CF910895009799F480917903909113
:102380007A032FEFFB012083892B59F020917803EA
:1023900030E02F5F3F4F2417350719F4CB01D9CF19
:1023A00082CC0895009799F48091790390917A03F3
:1023B0002FEFFB012083892B59F02091780330E027
:1023C0002F5F3F4F2417350719F4CB01C2CF6BCCD9
:1023D00008952DE0AC01249FC001259F900D11248C
:1023E000E0918203F0918303E80FF91F2381348188
:1023F0002250310981E02230310508F080E0089553
:102400000F931F93CF93DF93009184031091850363
:10241000D0E0C0E080E00C171D0749F491E0811185
:1024200090E0892FDF91CF911F910F910895811135
:10243000F5CFCE01CEDF2196EECFA0918203B091F1
:102440008303109729F1209184033091850382172B
:102450009307F0F45DE0589F9001599F300D1124CF
:10246000A20FB31FED91FC911197309789F012964E
:102470008C91681768F485E0689FE00DF11D1124C8
:1024800080819181892B21F081E09281491708F0A8
:1024900080E00895EF92FF920F931F93CF93DF9305
:1024A000EA01FC01E60FF71F02811381E480F58049
:1024B0004F2D6E2DC801C1DF81110DC082E090E06B
:1024C000998388838EEF9FEFDF91CF911F910F91BA
:1024D000FF90EF900895C8017CDF882339F082E0F7
:1024E00090E09983888388EF9FEFEECF10934A01A5
:1024F00000934901E0924B01F0924C0181E090E0A1
:102500009983888390E080E0DFCFCF92DF92EF92D3
:10251000FF920F931F93CF93DF937A01EC01C60FC5
:10252000D71FC0904901D0904A0100914B011091F2
:102530004C01412F602FC60180DF811110C082E065
:1025400090E0F701918380838AEF9FEFDF91CF9135
:102550001F910F91FF90EF90DF90CF900895C601EB
:1025600038DF882341F082E090E0F7019183808397
:1025700088EF9FEFEBCF4C815D816E817F819A81E7
:1025800089818F3F41F082E090E0F7019183808361
:102590008EEF9FEFDBCFEDE0EC9D9001ED9D300DD8
:1025A0001124E0918203F0918303E20FF31F019065
:1025B000F081E02D25E0029FE00DF11D1124019036
:1025C000F081E02D27E0129FE00DF11D11248083A2
:1025D00091838B81828343835483658376831F5FDA
:1025E00010934C0181E090E0F7019183808390E0AB
:1025F00080E0ACCFEF92FF920F931F93CF93DF93C6
:102600007A018C01060F171FC0918203D0918303BA
:10261000209781F021E030E0F801828193814091A0
:102620008403509185038417950710F030E020E073
:10263000232B71F482E090E0F701918380838EEF89
:102640009FEFDF91CF911F910F91FF90EF90089531
:102650004DE0489F9001499F300D1124C20FD31FB8
:10266000B8DE882341F082E090E0F7019183808317
:1026700088EF9FEFE6CFF8012481358120383105BE
:10268000C8F687818111D6CF4181842F90E08F7E5B
:10269000009741F082E090E0F7019183808386EF1C
:1026A0009FEFCFCF4F833E832D83268128871986C6
:1026B000223010F421E0288721E030E0F701318357
:1026C0002083BFCF88E090E0FA019183808390E07F
:1026D00080E00895FB018FEF808381E181838FEF9C
:1026E0009FEF9383828380E890E0958384831682B2
:1026F00017820895FB018FEF808391E0918382839D
:102700009383848384E3858381E090E09783868349
:1027100008954BE050E06AE871E02ACB8F929F92D7
:10272000BF92CF92DF92EF92FF920F931F93CF93BE
:10273000DF93EA01FC01E60FF71F82819381048198
:10274000B580E0918203F0918303309791F482E0A9
:1027500090E0998388838CEF9FEFDF91CF911F9159
:102760000F91FF90EF90DF90CF90BF909F908F9050
:10277000089520918403309185038217930738F0E0
:1027800082E090E0998388838EEF9FEFE6CF2DE083
:10279000289F6001299FD00C1124EC0DFD1DE080C5
:1027A000F180E114F10499F28281081748F785E07D
:1027B000089F80011124E00EF11EF70180819181B4
:1027C000892B29F6BB20E1F2F7E0BF9E40011124DE
:1027D000C4010E942B1EF70191838083E091820344
:1027E000F0918303EC0DFD1D0190F081E02DE00FD1
:1027F000F11F80819181009739F482E090E0998304
:1028000088838DEF9FEFA9CFA40170E060E00E9464
:102810000C2F8091820390918303C80ED91EF6017C
:1028200080819181080F191FF801B28281E090E048
:102830009983888390E080E090CFAF92BF92CF924F
:10284000DF92FF920F931F93CF93DF93EA01FC0176
:10285000E60FF71F82819381F4800091820310912B
:1028600083030115110581F482E090E09983888348
:102870008CEF9FEFDF91CF911F910F91FF90DF9031
:10288000CF90BF90AF90089520918403309185033D
:102890008217930738F082E090E0998388838EEF67
:1028A0009FEFE8CF2FEF2F0D2C3FA8F72DE0289FAB
:1028B0006001299FD00C11240C0D1D1DF801808191
:1028C0009181892B89F6F5E0FF9E50011124C50105
:1028D0000E942B1EF80191838083E0918203F09186
:1028E0008303EC0DFD1D80819181009739F482E016
:1028F00090E0998388838DEF9FEFBCCFA50170E0B6
:1029000060E00E940C2FE0918203F0918303EC0DB4
:10291000FD1DF28281E090E09983888390E080E061
:10292000A9CFCF92DF92EF92FF920F931F93CF9395
:10293000DF93860F971FFC01028113818091820330
:1029400090918303892B81F082E090E0FA019183DA
:1029500080838CEF9FEFDF91CF911F910F91FF90BC
:10296000EF90DF90CF900895C801B0E0A0E001970C
:10297000A109B1098F3F9F4FA105B10540F082E049
:1029800090E0FA01918380838EEF9FEFE4CF7A018C
:102990008DE0809F6001819FD00C1124C6010E94B0
:1029A0002B1EEC01009741F482E090E0F701918347
:1029B00080838DEF9FEFCFCFA60170E060E00E9493
:1029C0000C2FD0938303C09382031093850300934D
:1029D000840390E080E02FEF3FEF8017910741F4F0
:1029E00081E090E0F7019183808390E080E0B3CFB5
:1029F0003C872B8701962D96F0CFCF92DF92EF92F6
:102A0000FF920F931F93CF93DF93EC01D12CC12C36
:102A100010E000E0F12CE12C8A818017110609F00A
:102A2000BCF4AE01455F5F4F63E070E0C7010E94F8
:102A3000A51E009721F02FEF3FEF3C872B87DF91FA
:102A4000CF911F910F91FF90EF90DF90CF9008955D
:102A5000E881F981EC0DFD1D23813481C9010196C6
:102A60000115110519F44F8144FD049661E070E0F1
:102A7000BFD7E816F90608F47C010F5F1F4F85E009
:102A8000C80ED11CC9CFF8942091800330918103E6
:102A900081E02115310509F080E0232B09F07894BD
:102AA00008954F925F926F927F928F929F92AF9212
:102AB000BF92CF92DF92EF92FF920F931F93CF932B
:102AC000DF933C01660E771EF301828193814C01F6
:102AD000B12CA12CC0918203D0918303209769F07F
:102AE00021E030E060918403709185038617970799
:102AF00010F030E020E0232BC1F482E090E0FA01F6
:102B0000918380838EEF9FEFDF91CF911F910F9183
:102B1000FF90EF90DF90CF90BF90AF909F908F90FD
:102B20007F906F905F904F90089580924D019092AA
:102B30004E01A0924F01B09250016DE0689F90014C
:102B4000699F300D1124C20FD31FF301818183309F
:102B500040F082E090E0FA019183808386EF9FEF5E
:102B6000D3CF2A012B813C81232BF1F42881398199
:102B70009F8191FF2EC0232B09F464C0209187030D
:102B80009A81422F490F5527551FBA0141E050E065
:102B90006138710514F050E040E0452B09F452C053
:102BA0002A87920F909387038150823008F476C071
:102BB0006ADF882309F4C7C0F3018181813009F4F9
:102BC00080C008F470C0823009F4B5C090E080E0A5
:102BD00090C0232BB9F1209186039A81E22FE90F4F
:102BE000FF27FF1F41E050E0ED3FF10514F050E0FA
:102BF00040E0452B39F12A87920F90938603D4CF7A
:102C0000A081B181A20FB31F11966C91060F111D07
:102C10000196295F3F4F8417950794F3C114D1049F
:102C2000C9F48F8184FF16C031D721E0A8014B5F22
:102C30005F4F8417950708F420E0A7014B5F5F4FB3
:102C400021110EC082E090E0F2019183808387EF32
:102C50009FEF5ACF1BD721E0A8014F5F5F4FE9CF0D
:102C600088819981E80EF91EF70114830383FFEF31
:102C7000CF1ADF0A7A018A818C151D0409F00CF441
:102C800097CFE881F981EE0DFF1D428150E030E0E1
:102C900020E010E000E090E080E0BDCFF12CE12CDE
:102CA000D12CC12CE8CF81E090E09C838B83A8DB02
:102CB000882309F48BCF81E090E03CD880E448D8A9
:102CC00085CF8B859C85019651F083E090E09C83B5
:102CD0008B8382E090E02ED880E434D877CF22E056
:102CE00082169104A104B1047CF4CE0186DE009723
:102CF00061F3789422E030E0F20131832083892B64
:102D0000F9F08DEF9FEF00CF2D813E81809143013F
:102D10009091440128173907C1F6609147017091DD
:102D20004801AE01455F5F4F80914501909146019A
:102D30000E94BC1FDCCF82E090E09C838B8346CF57
:102D400090E080E0E1CE82E090E0F2019183808328
:102D500085EF9FEFD9CE8F929F92AF92BF92CF9285
:102D6000DF92EF92FF920F931F93CF93DF93EA01CD
:102D70008C01060F171FF8018181833098F082E0E3
:102D800090E09983888386EF9FEFDF91CF911F9129
:102D90000F91FF90EF90DF90CF90BF90AF909F90FA
:102DA0008F9008958091820390918303892B61F025
:102DB00081E090E02091840330918503232B11F46E
:102DC00090E080E0892B39F482E090E09983888359
:102DD0008EEF9FEFDACF57DE882309F4D6C0F801D3
:102DE0008181813009F48CC0E8F0823099F420911F
:102DF000840330918503E0918203F091830390E096
:102E000080E041E050E02817390709F0B4C0F8DA53
:102E1000811117C0789481E090E09983888390E0D5
:102E200080E0B3CF2091840330918503E091820349
:102E3000F091830390E080E041E050E028173907EB
:102E400041F481E090E00E949A0E80E40E94A80E76
:102E5000E1CF63817481672B11F054834383019622
:102E60003D96ECCFE0918203F0918303E00FF11FD8
:102E7000238134812230310569F4238534852F3F45
:102E80003F4F41F422E0C216D104E104F1040CF5F5
:102E9000CF01B3DD4FEFC41AD40AE40AF40A035F8A
:102EA0001F4F409184035091850370E060E0C41689
:102EB000D506E606F70664F50097A1F27894892B0B
:102EC00009F4A9CF82E090E0998388838DEF9FEF8A
:102ED0005CCF4581568120914301309144014217D6
:102EE0005307C1F6AF01455F5F4F60914701709195
:102EF000480180914501909146010E94BC1FCACFB4
:102F000010E000E090E080E0C12CD12C7601C9CF28
:102F10000097A1F610E000E0812C912C540183E091
:102F2000E82EF12C1AC0E0918203F0918303E00FA8
:102F3000F11F83819481029749F4F482E38282E055
:102F400090E00E949A0E80E40E94A20E8FEF881AF1
:102F5000980AA80AB80A035F1F4F809184039091D2
:102F60008503B0E0A0E088169906AA06BB06DCF24D
:102F700090E080E0A3CF638174816230710511F429
:102F80005483438301963D963ECF82E090E099833F
:102F9000888385EF9FEFF9CE0097B9F48FEFFB019F
:102FA000808320914D0130914E014DE0429FC00140
:102FB000439F900D1124E0918203F0918303E80F69
:102FC000F91F8285FB01818308950C94530E88E0DC
:102FD00090E0FA019183808390E080E00895109260
:102FE000810310928003E2E8F3E086E0DF011D92A6
:102FF0008A95E9F789E893E190937F0380937E03B4
:10300000089580917E0390917F0308952F923F92BF
:103010004F925F926F927F928F929F92AF92BF92E8
:10302000CF92DF92EF92FF920F931F93CF93DF9394
:10303000CDB7DEB762970FB6F894DEBF0FBECDBF37
:10304000F89420918003309181032F5F3F4F30939C
:10305000810320938003789420918203309183032D
:103060003B832A83232B09F456C12091840330919A
:103070008503232B09F44FC14D875E876F87788BBB
:103080009C878B878A819B819A8B898BD12CC12CC1
:10309000198210E000E08091840390918503C816A6
:1030A000D90618F43981332329F1F89480918003EB
:1030B000909181030197909381038093800378948A
:1030C000C80162960FB6F894DEBF0FBECDBFDF9188
:1030D000CF911F910F91FF90EF90DF90CF90BF9015
:1030E000AF909F908F907F906F905F904F903F90A8
:1030F0002F900895B60190E080E029D38887A989B0
:10310000BA8917968C91179781FD8DC013968D9172
:103110009C911497039709F086C01596ED91FC9148
:10312000FF83EE832B853C85E217F30709F07BC014
:10313000712C612C512C412C63C091D39A878987C3
:1031400010E04114510431F4A989BA8917961C91F1
:1031500012951170A989BA89ED91FC91E60DF71DC0
:1031600023803480111169C0BFEF2B1A3B0A61E044
:1031700070E0C1013DD45C01A989BA891B968D918B
:103180009C918F3F980709F45CC0B50136D74C017C
:10319000009709F4BBC0E985FA85E80FF91FA989F2
:1031A000BA891A968C91840D808311114DC08F01BC
:1031B0000F5F1F4F8091430190914401AE81BF8109
:1031C000A817B90709F09DC081E090E0B885BB233E
:1031D00011F090E080E0710109851A859501A40144
:1031E000B6019195819591093DD38C01892B11F000
:1031F000C4017FD58FEF481A580A95E0690E711CFB
:10320000A989BA8912968C918415150429F024F0A5
:10321000B981BB2309F491CFE885EE2321F0B601F3
:1032200090E080E096D2FFEFCF1ADF0A29893A8931
:10323000235F3F4F3A8B298B2ECFE5E02E0E311CBA
:1032400096CFC50108D5A3CF8D859E85AF85B8895A
:1032500081839283A383B4838F010B5F1F4FAACF17
:10326000E080F180EC81FD81EE0EFF1ED701139608
:103270006D917C9114978C918F3FE1F1E1E0F0E04A
:1032800002C0EE0FFF1F8A95E2F7CF01092E000C56
:10329000AA0BBB0BFB0140815181628173818423A6
:1032A0009523A623B72321E0892B8A2B8B2B09F4A6
:1032B00020E0D8012C93D70111968C91080F111D95
:1032C000EA81FB813196FB83EA832C813D81295F72
:1032D0003F4F3D832C83A989BA89ED91FC91E60D7E
:1032E000F71D82812A813B818217130611F00CF0B1
:1032F000B7CF6ACFF701418150E0C8010E94032F88
:10330000DACF1D821C821B821A82E5CF31E039831D
:1033100006EF1FEF6FCF10E000E0C7CEB4CB78947C
:1033200008952F923F924F925F926F927F929F9259
:10333000AF92BF92CF92DF92EF92FF920F931F93C3
:10334000CF93DF9300D000D000D0CDB7DEB700918F
:10335000820310918303992493940115110509F4B4
:103360003EC0A0908403B09085038DDB982E882307
:10337000B1F1109283031092820310928503109290
:10338000840310928603109287038FEF9FEFDC0176
:1033900080934D0190934E01A0934F01B093500143
:1033A000789476D31E830D83C12CD12C7601C50170
:1033B000B0E0A0E089839A83AB83BC8322242A9463
:1033C000322C89819A81AB81BC81C816D906EA0664
:1033D000FB06F4F0C8018DD480E40E94A80E892D6C
:1033E00026960FB6F894DEBF0FBECDBFDF91CF910A
:1033F0001F910F91FF90EF90DF90CF90BF90AF9013
:103400009F907F906F905F904F903F902F90089586
:10341000AD81BE8192E0C916D104E104F1040CF53E
:103420001B968D919C918F3F980709F026D5ED81D1
:10343000FE8134862386ED81FE8180819181B12CCD
:10344000A12C412C512C3201892B59F5BFEFCB1AFD
:10345000DB0AEB0AFB0AED81FE813D96FE83ED83DC
:10346000B0CF15962D913C91169780914301909184
:10347000440128173907F9F61B968D919C91ABD51D
:10348000DACF8A0D9B1DDC018D919C91009709F08C
:1034900030D4BFEF4B1A5B0A6B0A7B0AE5E0AE0E35
:1034A000B11CAD81BE818D919C91119712964C916A
:1034B00050E070E060E044165506660677060CF3AF
:1034C00018D4C4CFCF93DF93EA012BDF811109C059
:1034D00082E090E09983888385EF9FEFDF91CF9121
:1034E000089581E090E00E949A0E81E090E0998337
:1034F000888390E080E0F2CF14DF10927F03109277
:103500007E03089542E050E06CEC71E00C94B80E3C
:10351000FF920F931F93CF93DF938A01EC01C60FA5
:10352000D71FF980B4D20897F816190671F068F021
:1035300082E090E0F801918380838EEF9FEFDF912E
:10354000CF911F910F91FF9008956C817D818E81A5
:103550009F814B810E943011811108C082E090E070
:10356000F8019183808384EF9FEFE9CFF9800E9477
:103570002B114F2D50E0BE01685F7F4F0E94032F3B
:1035800089810E949A1181E090E0F8019183808303
:1035900090E080E0D4CFDF92EF92FF920F931F93E1
:1035A000CF93DF938A01EC01C60FD71F0E942B1126
:1035B0007C01D9806CD2DD2059F0029721E030E007
:1035C000D816190619F010F030E020E0232B79F41A
:1035D00082E090E0F801918380838EEF9FEFDF918E
:1035E000CF911F910F91FF90EF90DF900895EF28FA
:1035F00041F482E090E0F8019183808384EF9FEFB3
:10360000EECFF9800E942B114F2D50E0BE016E5F6E
:103610007F4F0E94032F89810E949A1181E090E0E0
:10362000F8019183808390E080E0D9CF82E89AE12D
:1036300090938903809388030895809188039091E3
:10364000890308950895FC01118210829383828377
:103650000895DB011D921C92DC011296ED91FC9104
:1036600013977183608313967C936E9312970895DA
:10367000FC0180819181DB018D939C93A081B181BC
:10368000109741F08D919C9191838083892B11F447
:10369000F383E2830895FC0180819181DB018D93A6
:1036A0009C93892B11F473836283718360830895E3
:1036B000FC0111821082938382830895CF93DF935C
:1036C00000D0CDB7DEB71A821982F894BE016F5FC1
:1036D0007F4F8FE893E0CCDF89819A81009709F0D2
:1036E00008D389819A81892B89F7BE016F5F7F4F4B
:1036F00083E993E0BDDF89819A81009709F0F9D2CF
:1037000089819A81892B89F778940F900F90DF91A6
:10371000CF910895CF93DF9300D0CDB7DEB71A8253
:103720001982F894BE016F5F7F4F8BE893E0A0DFB2
:1037300089819A81009709F0DCD289819A81892B4D
:1037400089F778940F900F90DF91CF91089581E0E1
:10375000089590E080E00895EF92FF920F931F93F9
:10376000CF93DF9300D0CDB7DEB71A821982809154
:103770008A0307EF1FEF8823A1F1F894BE016F5F62
:103780007F4F83E993E074DF789489819A81EE24F6
:10379000E394F12C892B51F4F894BE016F5F7F4FB5
:1037A0008FE893E065DF7894F12CE12C89819A8190
:1037B0000EEF1FEF0097A9F0FC014281538164E0F6
:1037C00070E019D68C01892B61F0F89469817A81B7
:1037D000C701880F991F880F991F81579C4F5BDF86
:1037E0007894C8010F900F90DF91CF911F910F91A6
:1037F000FF90EF9008950F931F93CF93DF9300D026
:1038000000D0CDB7DEB71C821B821A82198280914C
:103810008A0307EF1FEF8823C1F0AE014D5F5F4FB2
:1038200064E070E0CE01019659D68C01892B69F4D1
:10383000E981FA818B819C8193838283F8946981E9
:103840007A818BE893E005DF7894C8010F900F90A0
:103850000F900F90DF91CF911F910F9108955ED738
:10386000049608958F929F92AF92BF92CF92DF926B
:10387000EF92FF920F931F93CF93DF9300D0CDB7BA
:10388000DEB71A821982BC016F5F7F4F633071050A
:1038900098F0AA24AA94BA2CC5010F900F90DF913A
:1038A000CF911F910F91FF90EF90DF90CF90BF903D
:1038B000AF909F908F9008954115510551F34801A5
:1038C00059018A016C01CBDF8815990511F7E114C4
:1038D000F104F9F28E0D9F1DA816B906D0F2809161
:1038E0008A038823F1F0F894B501645071099701B7
:1038F000AE014F5F5F4FC801049685D65C01892BEE
:1039000071F489819A81F80193838283C601880FBB
:10391000991F880F991FB80181579C4F9ADE7894A0
:10392000BBCF87EFA82EBB24BA94B6CFAF92BF927D
:10393000CF92DF92EF92FF920F931F93CF93DF937B
:1039400000D0CDB7DEB71A821982892B09F047C0A3
:103950006115710509F443C04115510509F43FC0D3
:103960002115310509F43BC001151105C1F1809104
:103970008A038823B9F179016A015B01F894BE01D9
:103980006F5F7F4F8BE893E073DE789489819A8133
:10399000009759F1DC0112966D917C91A801049673
:1039A0004BD68C01E981FA81D501ED93FC9382819C
:1039B00093810496F6019183808351DFD7018D9323
:1039C0009C93C8010F900F90DF91CF911F910F91A1
:1039D000FF90EF90DF90CF90BF90AF9008950FEFE2
:1039E0001FEFEFCF07EF1FEFECCF0EEF1FEFE9CF89
:1039F000CF93DF93EC01672B71F499D68C179D0759
:103A000060F08CD62496C80FD91F8BD68C0F9D1FC3
:103A1000DF91CF91089588D6F1CF90E080E0F8CF84
:103A20000F931F93CF93DF9320918A0321112BC013
:103A30008B01EC018FE893E006DE83E993E003DE7F
:103A40008BE893E000DE86D00097C1F470D670E07A
:103A500060E0CEDF41E551E062E070E076D10097B2
:103A600069F4809151019091520173D6B801CE0151
:103A7000A8D4009719F421E020938A03DF91CF9115
:103A80001F910F91089584EF9FEFF8CF4DC64FC659
:103A9000CF93DF934FD6EC01892B11F40FDE3ADE82
:103AA000CE01DF91CF910895CF93DF9343D6EC0100
:103AB000892B09F403DECE01DF91CF910895809127
:103AC0005101909152010895CF93DF9380918A0321
:103AD000D0E0C0E08823D1F041D6EC01892BB1F4CD
:103AE000EDDD18DE8091510190915201C6D1D5D201
:103AF000EC01892B59F48FE893E0DADD83E993E058
:103B0000D7DD8BE893E0D4DD10928A03CE01DF91FC
:103B1000CF910895CF93DF930097A1F4DF91CF91D8
:103B20000895EC011A821982A883309711F09283CC
:103B300081832F5F3F4FFC01860F971F421753076A
:103B400081F7ECCF30E020E0F0E0E0E0AFEF6F5F36
:103B50007F4FF4CFAF92BF92CF92DF92EF92FF925E
:103B60000F931F93CF93DF9388EA94E07C012CEFAF
:103B7000E22288EDC82E81E0D82E9EEDA92E91E09C
:103B8000B92EC7EFD4E08E01D6014D915D916D0144
:103B9000F501619171915F01D8011196FC92EE924D
:103BA00015965C934E93149713965C934E931297CD
:103BB00017967C936E9316979B012F5F3F4F249F20
:103BC000C001259F900D349F900D112419969C9350
:103BD0008E931897C7019EDFF80180859185E80EC6
:103BE000F91E065F1F4FFEEDCF16F1E0DF0661F60E
:103BF000E9E9F3E08CE091E0DF019C011D922150A6
:103C00003040E1F7109298031092970385E195E018
:103C10001F8E1E8E1BA21AA219A218A21DA21CA2E0
:103C20001FA21EA22A968C179D0791F71092F404EA
:103C30001092F3041092F6041092F50490E080E0E4
:103C4000DF91CF911F910F91FF90EF90DF90CF9078
:103C5000BF90AF900895009799F1F8948131910544
:103C600050F48091F9049091FA04892B39F020E006
:103C700090E080E018C08931910550F480910305EF
:103C800090910405892B31F021E081E090E00BC098
:103C90008197A8F480910D0590910E05892B79F0FC
:103CA00022E082E090E0EAE0E89FD001E99FB00DD9
:103CB0001124A950BB4F8D919C91009721F47894C9
:103CC00090E080E00895E29FF0011124E950FB4F5D
:103CD000DC0111964D915C91518340834281538167
:103CE0004150510953834283FC012193CF017894C1
:103CF0000895009749F1DC018E91863041F4E091FE
:103D0000F504F091F6043097F9F0CD01099486306E
:103D1000D8F4282F30E0F8948FEF8C938AE0829FBC
:103D2000F001839FF00D1124E950FB4F80819181B8
:103D300012969C938E931197B183A0838281938175
:103D400001969383828378940895CF92DF92EF92C5
:103D5000FF920F931F93CF93DF939C018CE993E025
:103D60008C7F4115510509F485C02115310509F4F1
:103D700081C06115710509F47DC08A01AB01B901EB
:103D80006D5F7F4F6C7F9B012F5F3F4F249F7001C2
:103D9000259FF00C349FF00C1124F894E7EFF4E029
:103DA00023E030E0E901A6A1B7A1C68CD78CCD28CD
:103DB00009F054C0109709F03CC0C0909703D09010
:103DC000980329E031E02C193D092E153F0530F408
:103DD0007894CFEFDFEF86EF9FEF1FC02AE02C9F94
:103DE000F0012D9FF00D1124E950FB4F918380834A
:103DF000558344835383428377836683F186E086C9
:103E000089DEEC0CFD1CF0929803E0929703789405
:103E1000CF3FDC0701F390E080E0F801D183C0835D
:103E2000DF91CF911F910F91FF90EF90DF90CF9096
:103E30000895AE15BF0590F02AE02C9FF0012D9F4C
:103E4000F00D1124E950FB4F918380835583448307
:103E500053834283778366835DDED9CF8A0F9B1FAE
:103E60002F5F3F4F3A962630310509F09BCFCFEFB9
:103E7000DFEFCDCF8FEF9FEFD3CFFF920F931F9345
:103E8000CF93DF939C01235031092330310508F093
:103E900070C0EC01F89485E09AE09C9FD0019D9F52
:103EA000B00D1124A150BB4F082F10E0909FF001DE
:103EB000919FF00D1124E950FB4F20813181C017F3
:103EC000D10714F1FF24F394232B41F52AE0209F1E
:103ED000F001219FF00D1124E950FB4F80919703D1
:103EE0009091980340855185841B950B909398037E
:103EF000809397032C9FF0012D9FF00D1124E95022
:103F0000FB4F118610861CC0232B39F42D913C9158
:103F10001197232BA9F48150C7CFF12C8AE08C9FF5
:103F2000F0018D9FF00D1124E950FB4F4085518524
:103F300070E060E0808191810E940C2FF110C6CF6B
:103F40008AE08C9FF0018D9FF00D1124E950FB4F0A
:103F500011821082158214821382128217821682B5
:103F6000789490E080E0DF91CF911F910F91FF90C6
:103F700008958FEF9FEFF7CF4115510549F1009755
:103F800039F16115710521F1F8942091F304309114
:103F9000F404232BB9F42091F5043091F604232B7B
:103FA00089F49093F4048093F3047093F60460937F
:103FB000F504789426E030E090E080E0FA01318367
:103FC0002083089578942FEF3FEF86EF9FEFF6CF91
:103FD0008FEF9FEF0895069769F4F8941092F40418
:103FE0001092F3041092F6041092F504789490E085
:103FF00080E008958FEF9FEF08956115710519F422
:10400000F0E0E0E011C08630910581F4E091F30426
:10401000F091F4043097A1F3CB0101960995009734
:1040200079F3FC0186E08193CF0108959C01235030
:1040300031092330310520F72AE0289FD001299F3C
:10404000B00D1124A950BB4F2D913C911197232BFA
:10405000B9F216962D913C9117972617370780F2E3
:10406000F89412962D913C9113972115310529F062
:10407000ED91FC911197309711F47894C1CF418163
:10408000528111965C934E932150310913963C93C3
:104090002E93129781937894C7CFE5EAF4E08EE4EB
:1040A000DF011D928A95E9F7E9E9F3E08CE091E000
:1040B000DF019C011D9221503040E1F710929803DE
:1040C00010929703E7EFF4E08CE3DF011D928A95ED
:1040D000E9F7E3EFF4E084E0DF011D928A95E9F768
:1040E00090E080E00895CF93DF93C0915301D09189
:1040F0005401CF3FDC0759F4C0D39093540180930F
:10410000530197FF09C0D0935401C093530184EF2A
:104110009FEFDF91CF91089590E080E0FACF823059
:10412000910528F48093330590E080E008958FEFA7
:104130009FEF08954F925F926F927F92AF92BF92DE
:10414000CF92DF92EF92FF920F931F93CF93DF9363
:1041500000D0CDB7DEB71A821982009709F479C072
:104160006115710509F475C0209153013091540116
:1041700007EF1FEF2F3F3F4F09F445C06B015C0174
:10418000412C512C3201F12CE12C10E000E09E0179
:104190002F5F3F4FA6014E195F09B5016E0D7F1DC0
:1041A0008091530190915401CCD3892B09F04BC0DD
:1041B00089819A81009741F4E114F10429F4209156
:1041C0003305222309F442C0E80EF91EEC14FD0465
:1041D000D0F480E8481684E858068EE16806710439
:1041E00020F560E070E0CB010E94C82B2AE0420E6F
:1041F000511C611C711C0A3F4FEF140721F0043F52
:104200008FEF1807A1F4C8010F900F90DF91CF91A5
:104210001F910F91FF90EF90DF90CF90BF90AF90E4
:104220007F906F905F904F90089501EF1FEF81E0B6
:1042300090E0013F2FEF120711F090E080E0892B12
:1042400009F4A5CFE0CF04EF1FEFDDCF0AEF1FEF9A
:10425000DACF0FEF1FEFD7CF4F925F926F927F921F
:10426000AF92BF92CF92DF92EF92FF920F931F9384
:10427000CF93DF9300D0CDB7DEB71A8219820097B3
:1042800009F479C06115710509F475C020915301D5
:104290003091540107EF1FEF2F3F3F4F09F445C006
:1042A0006B015C01412C512C3201F12CE12C10E00E
:1042B00000E09E012F5F3F4FA6014E195F09B50137
:1042C0006E0D7F1D8091530190915401EDD2892B89
:1042D00009F04BC089819A81009741F4E114F104FF
:1042E00029F420913305222309F442C0E80EF91E77
:1042F000EC14FD04D0F480E8481686E9580688E9F5
:104300006806710420F560E070E0CB010E94C82BC4
:104310002AE0420E511C611C711C0E3F4FEF140726
:1043200021F0043F8FEF1807A1F4C8010F900F9000
:10433000DF91CF911F910F91FF90EF90DF90CF9081
:10434000BF90AF907F906F905F904F90089502EF75
:104350001FEF81E090E0023F2FEF120711F090E095
:1043600080E0892B09F4A5CFE0CF04EF1FEFDDCF6C
:104370000EEF1FEFDACF0FEF1FEFD7CF8091530172
:10438000909154018F3F980749F06FD2892B49F4DF
:104390008FEF9FEF909354018093530190E080E062
:1043A000089584EF9FEF0895FC01680F791F90E056
:1043B00080E0E617F70709F408952191820F911D17
:1043C000F8CF20913405211113C08DDE009791F4B0
:1043D00010923A051092390510923805109237055F
:1043E000109236051092350521E02093340508958A
:1043F00084EF9FEF0895AF92BF92CF92DF92EF923A
:10440000FF920F931F93CF93DF93009709F460C03F
:104410004630510508F45CC020913405C7EFDFEF4A
:10442000222309F449C08C01060F171FF801C08030
:10443000D180C114D10409F44EC096012A5F3F4FC8
:104440004217530708F447C07C01809139059091C9
:104450003A0593838283B6016C5F7F4F5801A60EA5
:10446000B71EC801A1DFF5019183808364E070E08D
:10447000C80160DEEC01892BF9F481E090E04FDEA9
:10448000B601C801049656DEEC01892B91F462E076
:1044900070E0C5014FDEEC01892B59F4C70129DC1E
:1044A0008091390590913A05019690933A05809351
:1044B000390590E080E033DECE01DF91CF911F918E
:1044C0000F91FF90EF90DF90CF90BF90AF90089545
:1044D000CFEFDFEFF1CFC9EFDFEFEECF6F927F923B
:1044E0008F929F92AF92BF92CF92DF92EF92FF9204
:1044F0000F931F93CF93DF9300D000D0CDB7DEB7DB
:10450000009709F47AC04115510509F476C020914D
:10451000340507EF1FEF222309F44DC03A017B0158
:104520005C0164E070E0CE01019696DE8C01892B7F
:1045300009F041C009811A810115110509F45AC019
:10454000480186E0880E911CB701680D791D8091A5
:1045500055019091560151DD6C01009709F450C04E
:10456000A70170E060E00E940C2F89819A81AB81E5
:10457000BC81EC0CFD1CF70181939193A193B19345
:104580007F0181E090E0CBDDB801C70165DE892BBA
:1045900031F562E070E0C701800F911F5DDE8C0194
:1045A000892BE9F490E080E0BADDF501D182C08288
:1045B000F30191828082C8010F900F900F900F90AD
:1045C000DF91CF911F910F91FF90EF90DF90CF90EF
:1045D000BF90AF909F908F907F906F90089590E0E4
:1045E00080E09DDDF50111821082F30111821082BD
:1045F000C6017FDB09EF1FEFDECF0FEF1FEFDBCF31
:1046000006EF1FEFD8CF0097A1F04115510589F0B3
:104610002115310571F0F90136966E177F0748F0C4
:10462000DC012D933C93DA01ED93FC9390E080E064
:1046300008958FEF9FEF0895AF92BF92CF92DF92D0
:10464000EF92FF920F931F93CF93DF93009709F49C
:104650005FC04115510509F45BC06530710508F470
:1046600057C020913405C7EFDFEF222391F1DC0121
:10467000CD90DC9011971296ED91FC9196012A5FF6
:104680003F4FC9EFDFEF2617370719F5C091350502
:10469000D0913605209749F521E030E0309336057A
:1046A000209335057A018C01F0933805E0933705A6
:1046B0005601B4E0AB0EB11CB50176DE0A0D1B1D30
:1046C000F801208131818217930729F5D701CD9216
:1046D000DC92CE01DF91CF911F910F91FF90EF906F
:1046E000DF90CF90BF90AF90089520913705309123
:1046F00038052F5F3F4FCCEFDFEFE217F30790F263
:10470000CBEFDFEF2E173F0768F2D0E0C0E0CACF53
:10471000CFEFDFEFDECFC3EFDFEFDBCF84E090E062
:10472000089582E090E008958CEF9FEF089580E275
:1047300090E0089510923A051092390510923805CC
:1047400010923705109236051092350590E080E002
:1047500008959093560180935501089580913405F2
:10476000882391F00BDE009789F410923A0510929D
:1047700039051092380510923705109236051092BF
:10478000350510923405089590E080E00895009773
:1047900049F06115710531F0FC0111821082FB01B5
:1047A000118210820895F3CF40E855E260E070E096
:1047B00090E080E000C026E082E196E00C94B02D0D
:1047C0001F920F920FB60F9211242F933F934F9386
:1047D0005F936F937F938F939F93AF93BF93EF9369
:1047E000FF938FE89DEF9093850080938400BDD068
:1047F000FF91EF91BF91AF919F918F917F916F91B9
:104800005F914F913F912F910F900FBE0F901F908E
:1048100018958FE89DEF9093850080938400AFE614
:10482000B0E08C918E7F8C93E0E8F0E080818C7F0B
:104830008083E1E8F0E08081877E808380818460EE
:10484000808380818C7F80838C9181608C9308959C
:10485000EFE6F0E0808190819E7F908381700895E3
:1048600081E0089510923B05089568EE73E080E0C2
:1048700090E08ED790E080E0089526E040E050E19F
:104880006EE070E082E196E00E94B02D82E196E059
:104890000E94E62C892B29F082E196E00E94002DEF
:1048A000F5CF90E080E00895CF92DF92EF92FF92F3
:1048B0000F931F93CF93DF936B017A01E901198264
:1048C000188282E196E00E94E62C892B79F186011C
:1048D000CC24C39482E0D82E80913B05811111C075
:1048E00082E196E00E94002D0297B1F7C0923B054D
:1048F000F801D1928F0188819981019699838883EB
:10490000EBCF888199818E159F0580F482E196E036
:104910000E94002D8F3F9807A1F3F80181938F012A
:1049200088819981019699838883EBCF90E080E01C
:10493000DF91CF911F910F91FF90EF90DF90CF907B
:1049400008950F931F93CF93DF93EA01890182E1CA
:1049500096E00E94942EF801D183C08390E080E01D
:10496000DF91CF911F910F91089580913C0591E0C7
:10497000980F90933C05882349F021E030E0309374
:104980003E0520933D0580933C05089578940E9450
:104990003903F89480913C058150F5CFCF93DF9394
:1049A000109200071092FF0629D7FEDEC0915E012B
:1049B000D0915F011982188260EA7FE080E090E088
:1049C0000E94000370E060E090E080E00E948301BC
:1049D000009709F037C00E947D06F8947894BE01D4
:1049E00061537F4F8A819B810E948601892B69F4E4
:1049F0006FEF7FEFCB010E9416020E94FA0288231C
:104A000021F0CB52DF4F81E08883F89402DF0E94CF
:104A1000FD02811104C00E94FA0291E0811190E030
:104A20009093FF0678940E94950EEC017894809103
:104A3000FF0681110AC00E94A4070E94DF02F894B9
:104A400090E080E0DF91CF9108950E94DD020E9406
:104A5000FD0291E0811106C00E94FA0291E08111ED
:104A600001C090E0909300079091000781E09111C0
:104A700080E08093FF06809100078111E9DE219795
:104A800029F40E94950E892B09F4ECDE0E94950E04
:104A9000EC01E6DECCCF5058BB27AA270ED092C13E
:104AA00083D130F088D120F031F49F3F11F41EF40F
:104AB00078C10EF4E095E7FB45C1E92F94D180F36E
:104AC000BA17620773078407950718F071F49EF50B
:104AD000C3C10EF4E0950B2EBA2FA02D0B01B90126
:104AE00090010C01CA01A0011124FF27591B99F064
:104AF000593F50F4503E68F11A16F040A22F232F70
:104B0000342F4427585FF3CF469537952795A795BF
:104B1000F0405395C9F77EF41F16BA0B620B730B66
:104B2000840BBAF09150A1F0FF0FBB1F661F771FD7
:104B3000881FC2F70EC0BA0F621F731F841F48F48C
:104B4000879577956795B795F7959E3F08F0B3CF12
:104B50009395880F08F09927EE0F979587950895FC
:104B6000CDD008F481E0089546D188F09F5790F0A9
:104B7000B92F9927B751A0F0D1F0660F771F881F82
:104B8000991F1AF0BA95C9F712C0B13081F064D1FB
:104B9000B1E0089561C1672F782F8827B85F39F099
:104BA000B93FCCF3869577956795B395D9F73EF4E1
:104BB00090958095709561957F4F8F4F9F4F089589
:104BC000E89409C097FB3EF49095809570956195A7
:104BD0007F4F8F4F9F4F9923A9F0F92F96E9BB275D
:104BE0009395F695879577956795B795F111F8CFD9
:104BF000FAF4BB0F11F460FF1BC06F5F7F4F8F4F44
:104C00009F4F16C0882311F096E911C0772321F039
:104C10009EE8872F762F05C0662371F096E8862FD1
:104C200070E060E02AF09A95660F771F881FDAF728
:104C3000880F9695879597F90895F7D080F09F375C
:104C400040F491110EF009C160E070E080E89FEB44
:104C5000089526F41B16611D711D811D79C093C036
:104C6000A3D018F011F0A7D038F49BC0F6C0E92FFC
:104C7000BAD0B0F35523C9F3E7FB62177307840773
:104C80009507A8F199F3E92FFF2788232AF0319798
:104C9000660F771F881FDAF7952F5527442332F0C8
:104CA00091505040220F331F441FD2F7BB27E91BFE
:104CB000F50B621B730B840BB109C1F222F4620F76
:104CC000731F841FB11D31972AF0660F771F881F4D
:104CD000BB1FEFCF915050405AF041F0882332F083
:104CE000660F771F881F91505040C1F793954BC0B6
:104CF0008695779567959F5FD9F7F8CF990F00084C
:104D0000550FAA0BE0E8FEEF16161706E807F9079D
:104D1000C0F012161306E407F50798F0621B730B38
:104D2000840B950B39F40A2661F0232B242B252BB9
:104D300021F408950A2609F4A140A6958FEF811D5C
:104D4000811D089597F99F6780E870E060E00895FD
:104D5000882371F4772321F09850872B762F07C092
:104D6000662311F499270DC09051862B70E060E006
:104D70002AF09A95660F771F881FDAF7880F9695A5
:104D8000879597F908959F3F31F0915020F48795CA
:104D900077956795B795880F911D9695879597F9A3
:104DA00008959FEF80EC089500240A9416161706C4
:104DB00018060906089500240A941216130614060C
:104DC00005060895092E0394000C11F4882352F06F
:104DD000BB0F40F4BF2B11F460FF04C06F5F7F4F27
:104DE0008F4F9F4F089557FD9058440F551F59F00E
:104DF0005F3F71F04795880F97FB991F61F09F3FC8
:104E000079F087950895121613061406551FF2CFF0
:104E10004695F1DF08C0161617061806991FF1CF40
:104E200086957105610508940895E5DFA0F0BEE759
:104E3000B91788F4BB279F3860F41616B11D672F89
:104E4000782F8827985FF7CF869577956795B11D5E
:104E500093959639C8F30895E894BB27662777277A
:104E6000CB0197F908954ADF08F48FEF08950BD02E
:104E7000A9CF9ADF28F09FDF18F0952309F062CFC1
:104E800090CF1124EACFAFDFA0F3959FD1F3950F18
:104E900050E0551F629FF001729FBB27F00DB11DBE
:104EA000639FAA27F00DB11DAA1F649F6627B00D4E
:104EB000A11D661F829F2227B00DA11D621F739F37
:104EC000B00DA11D621F839FA00D611D221F749F45
:104ED0003327A00D611D231F849F600D211D822F8C
:104EE000762F6A2F11249F5750408AF0E1F08823D3
:104EF0004AF0EE0FFF1FBB1F661F771F881F9150E0
:104F00005040A9F79E3F510570F01CCFA6CF5F3FE0
:104F1000ECF3983EDCF3869577956795B795F79512
:104F2000E7959F5FC1F7FE2B880F911D969587959A
:104F300097F9089590E080E008958091730590912D
:104F40007405891B990B08959091740580917305E0
:104F50002FEF3FEF981748F4E92FF0E0EB58FA4FA6
:104F6000208130E09F5F90937405C9010895E0911E
:104F7000740580917305E81730F4F0E0EB58FA4FB0
:104F8000808190E008958FEF9FEF08950895CF936B
:104F9000DF93EC01E0914B05F0914C053097F1F077
:104FA00090917405809173059817C0F090E0292FB7
:104FB00030E02617370754F4DE01A20FB31F4C91DF
:104FC0002B583A4FD9014C939F5FF1CF1092740543
:104FD00060937305CB01DF91CF910994DF91CF915D
:104FE0000895E0914D05F0914E05309729F010920B
:104FF00051051092500509940895CF93DF931F92A5
:10500000CDB7DEB7698320914F052223F9F02091B7
:105010005005203258F021E030E0FC013383228338
:1050200090E080E00F90DF91CF910895809151053D
:10503000E82FF0E0EE5AFA4F998190838F5F8093CA
:1050400051058093500581E090E0ECCF61E0CE0106
:105050000196A5D0F8CFCF92DF92EF92FF920F93F7
:105060001F93CF93DF937C01CB018A0120914F05E1
:10507000222389F0EB016B01C40ED51ECC15DD0592
:1050800061F06991D701ED91FC910190F081E02DE3
:10509000C7010995F3CF642F82D0C801DF91CF916A
:1050A0001F910F91FF90EF90DF90CF900895109295
:1050B000740510927305109251051092500536D068
:1050C00081EF97E298D087EC97E290C0CB01BA01CC
:1050D00054C081E080934F05609372051092510592
:1050E0001092500508950F93062F21E0409150052E
:1050F00062E575E0809172059DD010925105109285
:10510000500510924F050F910895EFE3F5E01382DB
:10511000128288EE93E0A0E0B0E084839583A683BA
:10512000B78388EE91E091838083089510920806FA
:1051300081E0809306061092050661E082E119D4B1
:1051400061E083E116D4E9EBF0E080818E7F80831B
:1051500080818D7F808388E48093B80085E480938C
:10516000BC000895ECEBF0E080818A7B808360E0F6
:1051700082E1FFD360E083E1FCC39B01AC0160E00E
:1051800074E284EF90E0FED52051310941095109C4
:1051900056954795379527952093B8000895209107
:1051A000B705260F3327331F21323105ECF4209148
:1051B0000806FC0190E080E0243069F082E0089568
:1051C000A091B7052191AC0147545A4FA40FB52FB8
:1051D000B11D2C930196861798F38091B705680F3F
:1051E0006093B70580E0089581E008959093FC05F1
:1051F0008093FB0508959093FE058093FD05089527
:1052000085EC8093BC00109208060895CF93DF933D
:1052100091E090930006882351F0C091B800D0919E
:10522000BA00A0DF83DFD093BA00C093B800DF914B
:10523000CF9108954F925F926F927F928F929F923B
:10524000AF92BF92EF92FF920F931F93CF93DF9392
:10525000413208F0D2C0F22ED42FE72E162FC82FDD
:1052600072D24B015C018091080681116DC082E011
:1052700080930806009306068FEF809395051092A1
:10528000DA05D093D905912FABEDB5E0E12FFE2DD6
:105290008E2F891B8D1708F48AC010920706809103
:1052A0000706CC0FC82BC0930706809105068130F6
:1052B00009F080C01092050646D24B015C01809136
:1052C00007068093BB008091010690910206A09191
:1052D0000306B0910406892B8A2B8B2B99F033D2CD
:1052E00000910106109102062091030630910406F8
:1052F000681979098A099B090617170728073907CA
:1053000008F442C08091BC0083FDD9CF85EC809326
:10531000BC0019D24B015C01FF2029F080910806E6
:10532000823009F449C0809195058F3F09F467C028
:1053300080919505803209F464C080919505803391
:1053400009F461C084E024C08091010690910206B6
:10535000A0910306B0910406892B8A2B8B2B09F4AC
:1053600082CFF1D140900106509002066090030672
:1053700070900406681979098A099B094616570630
:105380006806790608F06FCF8091FF053FDF85E062
:10539000DF91CF911F910F91FF90EF90BF90AF9051
:1053A0009F908F907F906F905F904F900895819124
:1053B0008D936ECF85EEABCF809101069091020662
:1053C000A0910306B0910406892B8A2B8B2B09F43C
:1053D000A3CFB9D1009101061091020620910306D6
:1053E00030910406681979098A099B09061717077D
:1053F0002807390708F090CFC7CF81E0C9CF80E0F8
:10540000C7CF82E0C5CF83E0C3CF85ED8093BC00DA
:105410008091010690910206A0910306B0910406C6
:105420000796A11DB11D23E0B695A7959795879581
:105430002A95D1F72091BC0024FD03C010920806E4
:105440000895409101065091020660910306709103
:105450000406452B462B472B69F30097A105B105A0
:1054600041F025E32A95F1F700000197A109B10960
:10547000E1CF8091FF05CACE1F920F920FB60F9217
:1054800011242F933F934F935F936F937F938F9349
:105490009F93AF93BF93EF93FF938091B900887F61
:1054A000803609F44AC008F03DC0883209F4A6C02D
:1054B00018F5803109F49AC0B8F4882309F4F6C0CD
:1054C000883009F493C0FF91EF91BF91AF919F9104
:1054D0008F917F916F915F914F913F912F910F909D
:1054E0000FBE0F901F901895883109F487C0803245
:1054F00051F78093950514C0803409F49CC040F4A2
:105500008033B9F38833F9F68093950579DEDBCFE4
:10551000803509F484C0883509F495C0883499F63B
:1055200074DFD1CF883909F48CC038F5883729F079
:1055300050F4883611F0803731F683E08093080606
:105540001092960557C0883809F47BC0803919F04D
:10555000803809F0B8CF80919605803208F071C08C
:10556000E091960581E08E0F809396058091BB00B7
:10557000F0E0E956FA4F80833DC0803B39F0E0F41B
:10558000803A09F479C0883A09F09DCF84E080938D
:1055900008061092B8051092B705E091FD05F0914C
:1055A000FE0509958091B70581110FC081E08093B8
:1055B000B7051092B90509C0803C09F475C0883C54
:1055C00009F472C0883B09F07ECFE091B80581E014
:1055D0008E0F8093B805F0E0E754FA4F80818093F6
:1055E000BB009091B8058091B70529C0809107064E
:1055F0008093BB0085EC8093BC0065CF9091DA0569
:105600008091D905981758F5E091DA0581E08E0F61
:105610008093DA05F0E0E552FA4F8081E9CFE0911E
:10562000DA0581E08E0F8093DA058091BB00F0E00F
:10563000E552FA4F80839091DA058091D905981749
:10564000C8F285E8D8CFE091DA0581E08E0F80932B
:10565000DA058091BB00F0E0E552FA4F808380913B
:10566000060681115DCF81E08093050684EA809370
:10567000BC001092080627CFC3DD809196058032CA
:1056800030F4E0919605F0E0E956FA4F108260910F
:10569000960570E0E091FB05F091FC0587E995E047
:1056A0000995109296050FCF85ECE1CF10929505E4
:1056B00037CF1F920F920FB60F9211242F933F9363
:1056C0008F939F93AF93BF9380910A0690910B069F
:1056D000A0910C06B0910D063091090623E0230F2E
:1056E0002D3758F50196A11DB11D20930906809311
:1056F0000A0690930B06A0930C06B0930D068091BA
:105700000E0690910F06A0911006B0911106019619
:10571000A11DB11D80930E0690930F06A093100655
:10572000B0931106BF91AF919F918F913F912F91AF
:105730000F900FBE0F901F90189526E8230F02962A
:10574000A11DB11DD2CF3FB7F89480910E06909164
:105750000F06A0911006B091110626B5A89B05C0B2
:105760002F3F19F00196A11DB11D3FBFBA2FA92FE0
:10577000982F8827BC01CD01620F711D811D911DDD
:1057800042E0660F771F881F991F4A95D1F7089549
:105790008F929F92AF92BF92CF92DF92EF92FF9241
:1057A0006B017C01D0DF4B015C01C114D104E10429
:1057B000F104D9F0E6D2C7DF681979098A099B0993
:1057C000683E73408105910580F321E0C21AD1083B
:1057D000E108F10888EE880E83E0981EA11CB11C38
:1057E000C114D104E104F10431F7FF90EF90DF9090
:1057F000CF90BF90AF909F908F900895789484B58C
:10580000826084BD84B5816084BD85B5826085BDBC
:1058100085B5816085BDEEE6F0E0808181608083A2
:10582000E1E8F0E010828081826080838081816085
:105830008083E0E8F0E0808181608083E1EBF0E04C
:10584000808184608083E0EBF0E0808181608083F0
:10585000EAE7F0E0808184608083808182608083D9
:105860008081816080838081806880831092C10004
:1058700008958E3008F08E502091570190E4299FB2
:10588000900111248770822B80937C0080917A0094
:10589000806480937A0080917A0086FDFCCF8091AD
:1058A0007800909179000895833081F028F4813058
:1058B00099F08230A9F008958730A9F08830C9F0B6
:1058C0008430B1F4809180008F7D03C0809180008E
:1058D0008F7780938000089584B58F7784BD089575
:1058E00084B58F7DFBCF8091B0008F778093B0001F
:1058F00008958091B0008F7DF9CFCF93DF9390E032
:10590000FC01E458FF4F249180579F4FFC01849184
:105910008823C9F090E0880F991FFC01E255FF4FE2
:10592000A591B491FC01EC55FF4FC591D491611143
:105930000DC09FB7F8948C91209582238C93888119
:10594000282328839FBFDF91CF910895623051F4BF
:105950009FB7F8943C91822F809583238C93E881A4
:105960002E2BEFCF8FB7F894EC912E2B2C938FBF6B
:10597000EACF1F93CF93DF93282F30E0F901E85946
:10598000FF4F8491F901E458FF4FD491F901E0579A
:10599000FF4FC491CC23A1F0162F811185DFEC2F8E
:1059A000F0E0EE0FFF1FEC55FF4FA591B4918FB7BC
:1059B000F894EC91111108C0D095DE23DC938FBFD1
:1059C000DF91CF911F910895DE2BF8CFFC01918DCF
:1059D000228D892F90E0805C9F4F821B91098F73ED
:1059E00099270895FC01918D828D981731F0828D51
:1059F000E80FF11D858D90E008958FEF9FEF0895DA
:105A0000FC01918D828D981761F0A28DAE0FBF2F92
:105A1000B11D5D968C91928D9F5F9F73928F90E0E8
:105A200008958FEF9FEF0895FC01538D448D252F2E
:105A300030E0842F90E0821B930B541710F0CF9628
:105A4000089501970895FC01A48DA80FB92FB11DE9
:105A5000A35ABF4F2C91848D90E001968F739927A4
:105A6000848FA689B7892C93A089B1898C91837082
:105A700080648C93938D848D981306C00288F3897B
:105A8000E02D80818F7D80830895CF93DF93EC019B
:105A9000888D8823B1F0AA89BB89E889F9898C911E
:105AA00085FD03C0808186FD0CC00FB607FCF7CFD3
:105AB0008C9185FFF2CF808185FFEDCFCE01C3DFD2
:105AC000EACFDF91CF910895EF92FF920F931F934A
:105AD000CF93DF93EC0181E0888F9B8D8C8D9813A1
